:1000000002002E220000000000000000000000009E
:1000200000000000000000000000000206AE758124
:10003000601201AAE582600302009A780079007AD2
:10004000007B007C007D00EC4D601C88828983E48D
:1000500093A3A882A9838A828B83F0A3AA82AB830D
:100060001CBCFFE31D80E07582007583007C007D71
:1000700000EC4D600AE4F0A31CBCFFF51D80F27596
:1000800082007583007C007D00EC4D600AE4F0A3E3
:100090001CBCFFF51D80F21200031206B380FE4364
:1000A0006F6D6D616E643A20257300526573706FD9
:1000B0006E73653A2025730D0A000D0A2050726F89
:1000C0006A656374325F54657374200D0A0041548D
:1000D0002B44564944424142410D0A0041542B569B
:1000E00045520D0A0041542B424155440D0A00412E
:1000F000542B524649440D0A0041542B445649445E
:100100000D0A0041542B5246430D0A0041542B5016
:100110004F57450D0A0041542B434C53530D0A00D1
:100120000D507265737320616E6420686F6C64207B
:1001300074686520424F4F5420627574746F6E204E
:10014000746F207472616E736D69742E0D0A0052A3
:10015000656D6F74652054657374005475726E69B3
:100160006E67207269676874005475726E696E6795
:10017000206C65667400476F696E6720666F7277E2
:1001800061726400526576657273696E67004174CE
:1001900020726573740052583A2025730D0A003C92
:1001A0004E4F20464C4F41543E0075A7007597DED8
:1001B0007597AD75FF8075EF0675A71075C1207531
:1001C000A70075A90075A900E5A930E7FB75A9038B
:1001D00075A903E5A930E7FB43A41143A60175E126
:1001E0000175E20075E341759810758DE6858D8B7C
:1001F00053890F438920D28ED29975C800438E103F
:1002000075CAEE75CBF675CEFF75CFFFD2ADD2CAEB
:10021000D2AF7582002275A700C2EF75B28075BC9F
:100220002075B91E75E80075DF3F75B300D2EF2267
:10023000AA82438E407592B87593FF8592948593F8
:10024000957591047B00C3EB9A500BE59130E7FB69
:1002500053917F0B80F075910022AA82AB837C00C2
:100260007D00C3EC9AED9B502B7E00BE0400501D18
:100270007582FAC002C003C004C005C00612023075
:10028000D006D005D004D003D0020E80DE0CBC0016
:10029000D10D80CE22AA82AB83ACF0FD75A720756C
:1002A000930C75C8107594008A438B448C458D4619
:1002B00090A20075F04A7404120F2BAA82AB83AC93
:1002C000F0FD754318E4F544F545F5468A828B83C5
:1002D0008CF0ED120F2BAA82AB83ACF0FDE4C39A35
:1002E000FAE49BFB74019CE49D8A958B96D2C943EA
:1002F000944075A70022AA8275A72010C90280FB2E
:100300008A9275A70022AA82AB83ACF08A828B8383
:100310008CF0120F0FFD60188D82C002C003C00464
:100320001202F6D004D003D0020ABA00DF0B80DC40
:100330002275A72010C80280FB53C83F85928275A2
:10034000A7002275A7207A007B0020C82675A70089
:10035000758214C002C003120230D003D00275A708
:10036000200ABA00010BBAA8E1BB61DE75A70075CF
:10037000820A22C2C853C83F85928275A70022AA6A
:1003800082AB83ACF0C002C003C004120343AD8251
:10039000D004D003D002BD0A0A8A828B838CF0E499
:1003A0000210D58A828B838CF0ED1210D5A3AA821D
:1003B000AB8380D175A720A2C875A70022AA82AB03
:1003C000837C007D00C3EC9AED9B50477E00BE0409
:1003D000005039C002C003C004C005C0061203B4F7
:1003E000E433D006D005D004D003D00260012275DA
:1003F00082FAC002C003C004C005C006120230D099
:1004000006D005D004D003D0020E80C20CBC00B5CB
:100410000D80B222AA82AB83ACF0C002C003C0043C
:10042000C002C003C004749FC0E07400C0E07480C8
:10043000C0E01210B4E58124FAF581C2969000055F
:1004400012025AD004D003D0028A828B838CF0121D
:10045000030690004775F04012037F90000A1202D5
:100460005AD2967447C0E07400C0E07440C0E07493
:10047000ABC0E07400C0E07480C0E01210B4E5814D
:1004800024FAF58122D2A0758228120230C2A0225D
:10049000AA828AE0A2E79290A2E69291A2E59292C5
:1004A000A2E49293C002120485758228120230D011
:1004B000028AE0A2E39290A2E29291A2E19292A239
:1004C000E09293020485AA82D2978A8212049090C5
:1004D000000202025AAA82C2978A821204909000F5
:1004E0000502025AC2A090001412025A75823312F9
:1004F00004D57582331204D57582321204D5758203
:10050000281204D575820C1204D57582011204D507
:1005100090001402025AAA82AB83ACF07402B52296
:10052000047DC080027D808D82C002C003C00412A1
:1005300004D590000512025AD004D003D0027D00E9
:100540007E00ED2AFFEE3BF88C018F82888389F0D4
:10055000120F0FFF60208F82C002C003C004C005CD
:10056000C0061204C6D006D005D004D003D0020DB8
:10057000BD00CF0E80CC3000248D028E03C3EA94E0
:1005800010EB648094805015758220C002C0031265
:1005900004C6D003D0020ABA00E30B80E022AA828C
:1005A000AB83ACF07402B5230774C04524FD80050D
:1005B00074804524FD8D82C002C003C0041204D59E
:1005C000D004D003D0027D007E00ED2AFFEE3BF880
:1005D0008C018F82888389F0120F0FFF60208F8239
:1005E000C002C003C004C005C0061204C6D006D0B5
:1005F00005D004D003D0020DBD00CF0E80CC22AABE
:10060000828543F005F07401800225E0D5F0FBFB04
:1006100075A720BA0002800ABA0102800FBA021E32
:100620008014EBF4FA52F1EB42D48012EBF4FA525C
:10063000F2EB42D58008EBF4FA52F3EB42CC75A70B
:1006400000228582BBC2EDD2EC30EDFD85BD8285F6
:10065000BE8322120642120F90AA82AB83ACF0FD39
:10066000C002C003C004C00590837B75F053744082
:10067000120FFCAA82AB83ACF0FDE58124FCF5816E
:10068000E4C0E074FCC0E0747FC0E07446C0E08A5F
:10069000828B838CF0ED1210F9AA82AB83ACF0FD53
:1006A000E58124FCF5818A828B838CF0ED22C2CF18
:1006B000B2B032E4F52DF52E1204E49001F41202EA
:1006C0005A74BAC0E07400C0E07480C0E01210B484
:1006D000158115811581902580E4F5F0120295753C
:1006E00043037582021205FF7543027582021205EB
:1006F000FF1202169000CE75F0801204149000DCF8
:1007000075F0801204149000E575F08012041490C6
:1007100000EF75F0801204149000F975F080120457
:100720001490010375F08012041490010C75F08090
:1007300012041490011675F0801204147420C0E0A5
:100740007401C0E07480C0E01210B41581158115E9
:1007500081752201D20090014F75F0801205167547
:10076000820F120653AC82AD83AEF0FF8C378D380A
:100770008E398F3A758210120653AC82AD83AEF07B
:10078000FF8C3B8D3C8E3D8F3EE4C0E0C0E074E0CA
:10079000C0E0743FC0E08537828538838539F0E555
:1007A0003A120F9CAC82E58124FCF581EC700302C7
:1007B0000A0EC2CAE4C0E0C0E074E0C0E0743FC00A
:1007C000E0853B82853C83853DF0E53E120F9CAC85
:1007D00082E58124FCF581EC700302086874F6C0A0
:1007E000E07428C0E074DCC0E0743FC0E0853B8268
:1007F000853C83853DF0E53E1210EEAC82AD83AEC4
:10080000F0FFE58124FCF5817451C0E07466C0E01E
:100810007483C0E0743CC0E08C828D838EF0EF1254
:1008200010F985822985832A85F02BF52CE5812412
:10083000FCF581C029C02AC02BC02C90000075F0A7
:10084000C874421210EE85822585832685F027F52F
:1008500028E58124FCF581752201D20090015B75A9
:10086000F080120516020E2074CDC0E074CCC0E0FA
:10087000C0E0743FC0E0853B82853C83853DF0E568
:100880003E120FCCAE82E58124FCF581EE700302AE
:1008900009497451C0E07466C0E07483C0E0743CE0
:1008A000C0E0853B82853C83853DF0E53E1210EE3D
:1008B00085823F85834085F041F542E58124FCF542
:1008C000817451C0E07466C0E07483C0E0743CC0C1
:1008D000E0853F828540838541F0E5421210F9852D
:1008E000823F85834085F041F542E58124FCF58116
:1008F000C03FC040C041C04290000075F0C8744283
:100900001210EE85822585832685F027F528E5815E
:1009100024FCF581C025C026C027C02890000075A2
:10092000F0C874421210EE85822985832A85F02B47
:10093000F52CE58124FCF581752201D20090016936
:1009400075F080120516020E20749AC0E07499C0EA
:10095000E074D9C0E0743FC0E08537828538838574
:1009600039F0E53A1210EE85823F85834085F041EB
:10097000F542E58124FCF5817451C0E07466C0E065
:100980007483C0E0743CC0E0853F8285408385412C
:10099000F0E5421210F985822585832685F027F53A
:1009A00028E58124FCF581749AC0E07499C0E07454
:1009B000D9C0E0743FC0E08537828538838539F03F
:1009C000E53A1210EEAE82AF83AAF0FBE58124FC7B
:1009D000F5817451C0E07466C0E07483C0E0743C7B
:1009E000C0E08E828F838AF0EB1210F98582298510
:1009F000832A85F02BF52CE58124FCF581752201F5
:100A0000D20090017675F080120516020E2074CD8A
:100A1000C0E074CCC0E0C0E0743FC0E085378285A0
:100A200038838539F0E53A120FCCAA82E58124FC9F
:100A3000F581EA7003020C70D2CA75CAB075CBB9E1
:100A4000E4C0E0C0E074E0C0E0743FC0E0853B82F9
:100A5000853C83853DF0E53E120F9CAA82E581240A
:100A6000FCF581EA7003020AF474F6C0E07428C051
:100A7000E074DCC0E0743FC0E0853B82853C838548
:100A80003DF0E53E1210EEAA82AB83ACF0FDE581AD
:100A900024FCF5817451C0E07466C0E07483C0E04A
:100AA000743CC0E08A828B838CF0ED1210F9858251
:100AB0002985832A85F02BF52CE58124FCF581C05E
:100AC00029C02AC02BC02C90000075F0C8744212B7
:100AD00010EE85822585832685F027F528E581247B
:100AE000FCF581752201D20090015B75F080120542
:100AF00016020E2074CDC0E074CCC0E0C0E0743F9C
:100B0000C0E0853B82853C83853DF0E53E120FCCFD
:100B1000AA82E58124FCF581EA7003020BC97451B5
:100B2000C0E07466C0E07483C0E0743CC0E0853B04
:100B300082853C83853DF0E53E1210EEAA82AB83B0
:100B4000ACF0FDE58124FCF5817451C0E07466C011
:100B5000E07483C0E0743CC0E08A828B838CF0ED4B
:100B60001210F9AA82AB83ACF0FDE58124FCF5817B
:100B7000C002C003C004C00590000075F0C87442F4
:100B80001210EE85822585832685F027F528E581DC
:100B900024FCF581C025C026C027C0289000007520
:100BA000F0C874421210EE85822985832A85F02BC5
:100BB000F52CE58124FCF581752201D200900169B4
:100BC00075F080120516020E20C037C038C039C03B
:100BD0003A90999A75F0D9743F1210EEAA82AB83BD
:100BE000ACF0FDE58124FCF5817451C0E07466C071
:100BF000E07483C0E0743CC0E08A828B838CF0EDAB
:100C00001210F985822585832685F027F528E58150
:100C100024FCF581C037C038C039C03A90999A7524
:100C2000F0D9743F1210EEAA82AB83ACF0FDE581DF
:100C300024FCF5817451C0E07466C0E07483C0E0A8
:100C4000743CC0E08A828B838CF0ED1210F98582AF
:100C50002985832A85F02BF52CE58124FCF5817507
:100C60002201D20090018475F080120516020E2038
:100C7000E4C0E0C0E074E0C0E0743FC0E0853B82C7
:100C8000853C83853DF0E53E120F9CAA82E58124D8
:100C9000FCF581EA7003020D2474F6C0E07428C0EC
:100CA000E074DCC0E0743FC0E0853B82853C838516
:100CB0003DF0E53E1210EEAA82AB83ACF0FDE5817B
:100CC00024FCF5817451C0E07466C0E07483C0E018
:100CD000743CC0E08A828B838CF0ED1210F985821F
:100CE0002985832A85F02BF52CE58124FCF581C02C
:100CF00029C02AC02BC02C90000075F0C874421285
:100D000010EE85822585832685F027F528E5812448
:100D1000FCF581752201D20090015B75F08012050F
:100D200016020E2074CDC0E074CCC0E0C0E0743F69
:100D3000C0E0853B82853C83853DF0E53E120FCCCB
:100D4000AA82E58124FCF581EA7003020DF8749E05
:100D5000C0E074EFC0E07427C0E0743DC0E0853BA4
:100D600082853C83853DF0E53E1210EEAA82AB837E
:100D7000ACF0FDE58124FCF5817451C0E07466C0DF
:100D8000E07483C0E0743CC0E08A828B838CF0ED19
:100D90001210F9AA82AB83ACF0FDE58124FCF58149
:100DA000C002C003C004C00590000075F0C87442C2
:100DB0001210EE85822585832685F027F528E581AA
:100DC00024FCF581C025C026C027C02890000075EE
:100DD000F0C874421210EE85822985832A85F02B93
:100DE000F52CE58124FCF581752201D20090016982
:100DF00075F0801205168028752500752600752768
:100E000000752800752900752A00752B00752C00C7
:100E1000752201D20090018E75F080120516C2CAAB
:100E2000E4C0E0C0E074C8C0E07442C0E085258240
:100E30008526838527F0E528120F9CE58124FCF5A3
:100E400081E4C0E0C0E074C8C0E07442C0E085291D
:100E500082852A83852BF0E52C120F9CE58124FCEA
:100E6000F58190002F75F0401203061203B4503440
:100E700090002F75F04012037FC2CA75CAB075CBBF
:100E8000B9D2CA742FC0E07400C0E07440C0E074EE
:100E900096C0E07401C0E07480C0E01210B4E58137
:100EA00024FAF581C37407952DE46480852EF063E0
:100EB000F08095F05005E4F52DF52E20B108052DB4
:100EC000E4B52D02052E7A007B00C3EA9407EB649B
:100ED0008094805026C3EA952DEB6480852EF063C4
:100EE000F08095F05008EA242FF8764F8006EA2427
:100EF0002FF8766F0ABA00D20B80CF7536007522B4
:100F000002D20090002F75F04012051602075F20F4
:100F1000F71430F6148883A88220F507E6A88375B5
:100F2000830022E280F7E49322E022FB7A20E4FCB3
:100F3000FDFEFFE5822582F582E58333F583E5F04A
:100F400033F5F0EB33FB4017DAE98042E582258286
:100F5000F582E58333F583E5F033F5F0EB33FBEC15
:100F600033FCED33FDEE33FEEF33FFEC9543ED95AF
:100F700044EE9545EF95464013EC9543FCED9544C2
:100F8000FDEE9545FEEF9546FF438201DABEEB226A
:100F9000E4AC83AB82FAF9748E021221FFA88118A7
:100FA00018121249D2D133E6400730E70B7582019F
:100FB0002220E70675820022C2D112122BE97003AB
:100FC000F5822230D101B3E433F58222FFA88118E3
:100FD00018121249D2D133E6400730E70B75820070
:100FE0002220E70675820122C2D112122BE970037A
:100FF000F5822220D101B3E433F582221212F6BC2D
:101000000003021295EF60FA30D502B2D1E583B445
:10101000FF030212ABE582B4FF030212AB2583404B
:10102000072482400B02129524831450030212AB52
:10103000F582EA8DF0A4A8F0EA8EF0A428F8E43551
:10104000F0F9EB8DF0A428E935F0F9E433CA8FF01C
:10105000A429F9EA35F0FAEBF88EF0A429F9EA357B
:10106000F0FAE433FBEC8DF0A429F9EA35F0FAE468
:101070003BFBE88FF0A42AFAEB35F0FBE433CCFD20
:101080008EF0A42AFAEB35F0FBE43CFCED8FF0A4E3
:101090002BFBEC35F0FC20E7031212C302127402A2
:1010A000194485821885831985F01A85091B9010CB
:1010B0009F0213ADC008858108E50824FBF51BE5F8
:1010C0000824FBF8861808861908861A90109F12C3
:1010D00013ADD0082220F71030F6118883A88220A3
:1010E000F507F6A88375830022F280F7F022A88125
:1010F0001818C6B2E7C60219591212F630D502B254
:10110000D1BF0009BC00030212B80212ABBC00033D
:10111000021295E583B4FF0BE582B4FF030212B817
:10112000021295E582B4FF030212ABC39583500708
:10113000247F400B02129524801450030212ABC08E
:10114000E0E4CCCBCAF98D438E448F45EF54F0C414
:10115000F5467583068546F0EB84F582E9C4F9EA25
:10116000C4FAEBC4FBEC540FC47803D6FC18EBD6DE
:10117000FB18EAD6FA8582F0EDA4A8F0FD8582F08E
:10118000EEA428FEE435F0F88582F0EFA428FFE411
:1011900035F0F8E99DF9EA9EFAEB9FFBEC98FCAD7F
:1011A00043AE44AF4530E7101582E92DF9EA3EFA27
:1011B000EB3FFBE43CFC80EDC082D58398C3E93370
:1011C000F9EA33FAEB33FBEC33FCC3E99DEA9EEB1F
:1011D0009FEC9400B3E413F9D002D0E0C44AFAD0F3
:1011E00003D0E0C44BFBD004D0E0F5F0540FC44C66
:1011F000FCD082158230F40FD3EC13FCEB13FBEA26
:1012000013FAE913F90582E930E70A74012AFAE4CE
:101210003BFBE43CFC02128CFCABF0AA83A9827479
:101220009EC2D1F5821212C30212747901AA82E61B
:101230008F82B5821318E6B5F00E18E6B58309184B
:10124000E68A82B58202790022B4800FE5F0700A46
:10125000E5837006E58270027F00EFB6801518B650
:10126000001018B6000B18B6000608080876002211
:1012700008080822B98003EA13B34010EA2401FAEF
:10128000E43BFBE43CFC50047C800582BC000EBBCC
:10129000000BBA0008E4F5F0F583F58222A2D1E54F
:1012A00082138CF092F78B838A8222E4F583F58295
:1012B00075F080F4A2D11322E4F583F58275F0C0B5
:1012C000747F227804EC7011E58224F8500AF582CC
:1012D000E4C9CACBFCD8EF22EC7820058220E713C2
:1012E000D5820122C3E933F9EA33FAEB33FBEC335D
:1012F000FCD8EA158222AA82AB83A2F73392D1608E
:1013000002D2F7F582ACF0E58124F9F8E6FD08E6B3
:10131000FE0886F008E6A2F73392D56002D2F7F510
:1013200083AFF022AA827435C0E07413C0E0C00A13
:10133000C00B8A82220511E4B51102051222AA828D
:1013400074302AFA24C6500A74072AFA300103437B
:1013500002208A82021324E582FAC4540FF582C067
:101360000212133ED002740F5AF58202133EAA0CE9
:10137000AB0DAC0EAD0FAE10751720EE2EFEED23AB
:101380005401FF4206EA2AFAEB33FBEC33FCED335F
:10139000FDC3EE95134008EEC39513FE430201D53D
:1013A00017D98A0C8B0D8C0E8D0F8E102285820A18
:1013B00085830BE4F511F512AA18AB19AC1A8A82D1
:1013C0008B838CF0120F0FFD74012AF518E43BF5A6
:1013D000198C1AEDFA700302193DBA250280030236
:1013E0001935C205C206C207C208C209C20AC20B29
:1013F000C20CC202C203C204751300751400751535
:10140000FFAB18AC19AD1A8B828C838DF0120F0FC5
:10141000FAA3AB82AC838B188C198D1ABA25078A74
:101420008212132480928A06BE3000402E8A06EE75
:1014300024C6402774FFB51513E51475F00AA4FE01
:10144000EA24D02EF51470BFD20680BBE51575F0E6
:101450000AA4FEEA24D02EF51580ACBA2E0A74FF39
:10146000B515A4751500809F8A06BE6100400E8ADE
:1014700006EE248540075302DFD2018002C201BA82
:1014800020028075BA2303021508BA2A0302150D3B
:10149000BA2B02805FBA2D028055BA4202805FBA31
:1014A0004303021552BA440302168DBA45030216CD
:1014B000A7BA46030216A3BA47030216ABBA4903FA
:1014C00002168DBA4C02803BBA4E030216AFBA4FD9
:1014D00003021694BA5003021626BA530302157675
:1014E000BA5503021699BA580302169E0216D9D2AB
:1014F00005021407D207021407D208021407D20A01
:10150000021407D20B021407D20C02140774FFB5A1
:101510001520300A0BE51B14F8881B8614021407EB
:10152000E51B24FEF8881B8606088607188E140221
:101530001407300A0BE51B14F8881B8615021407E4
:10154000E51B24FEF8881B8606088607188E150200
:101550001407300A0AE51B14F8881B8602800FE581
:101560001B24FEF8881B8603088604188B028A82D7
:101570001213240216DEE51B24FDF8881B860308DF
:10158000860408860518188B0C8C0D8D0E8B828CAA
:10159000838DF01219B2AB82AC838B1674FFB51534
:1015A0000385161520051DC3E51695145016E51480
:1015B000C39516F514AB141514EB60087582201250
:1015C000132480F1850C82850D83850EF0120F0F98
:1015D000FBFA6029AB151515C3E464808BF063F04A
:1015E0008095F050188A82121324AB0CAC0DAD0E0E
:1015F0000BBB00010C8B0C8C0D8D0E80C7200503DE
:101600000216DEC3E516951440030216DEE514C388
:101610009516F514AB141514EB70030216DE7582E3
:101620002012132480EEE51B24FDF8881B86030896
:10163000860408860518188B0C8C0D8D0EE50EFBA4
:1016400030E7047A438013EB546060047A50800AD8
:10165000EB30E6047A4980027A588A82C00212137B
:101660002475823A121324758230121324758278FD
:10167000121324D002BA4902800BBA5002800685A8
:101680000D82121357850C821213578051D209759F
:10169000130A804A751308804575130A8040751334
:1016A00010803BD2028037D2038033D204802FE5F2
:1016B0001B24FDF8881B8603088604088605181875
:1016C0008B0C8C0D8D0E8B828C838DF0E51112109E
:1016D000D5A3E5121210D580058A821213242002A8
:1016E0000620030330045AE51B24FCF8881B8603FC
:1016F0000886040886050886061818188B0C8C0DB9
:101700008D0E8E0F750C9F750D01750E80850C1C4E
:10171000850D1D850E1E7401251CFEE4351DFFABD5
:101720001E8E0C8F0D8B0E851C82851D83851EF0F1
:10173000120F0FFBFA70030213B88A82121324806F
:10174000CCE51370030213B87B60300A2BE51B1441
:10175000F8881BE6FC3395E0FDFEFF8C0C8D0D8EAA
:101760000E8F0F20095EAC0C7D007E007F008C0C7C
:101770008D0D8E0E8F0F804C300B1FE51B24FCF857
:10178000881B860408860508860608860718181828
:101790008C0C8D0D8E0E8F0F802AE51B24FEF88891
:1017A0001B860408860518ED3395E0FEFF8C0C8D32
:1017B0000D8E0E8F0F20090CAC0CAD0D7E007F003E
:1017C0008E0E8F0F300C43E50C450D450E450F6016
:1017D000397408B5130C758230C003121324D0037A
:1017E00080287410B51323758230C003121324D0DF
:1017F0000330010C758278C003121324D003800AD1
:10180000758258C003121324D003300925AC0CADE7
:101810000DAE0EE50FFF30E717C3E49CFCE49DFD21
:10182000E49EFEE49FFF8C0C8D0D8E0E8F0F8002C8
:10183000C209751600D20D8B00751000C00012137E
:101840006ED000200D0DE510C4FCE6FD4CF61888A6
:10185000038002A6100516B20DE50C450D450E4598
:101860000F70D68803E514700375140120061A2042
:101870000517E51604FCC39514500E758220C003AD
:10188000121324D003151480E930090E75822DC07F
:1018900003121324D00315148024E51660203007AA
:1018A0000E75822BC003121324D0031514800F3041
:1018B000080C758220C003121324D00315142005D0
:1018C0001EAC141514C3E5169C50273006047C305A
:1018D00080027C208C82C003121324D00380E2C3D8
:1018E000E51695145009E514C39516F51480037593
:1018F00014008B00AB161516EB6022B20D200D0AFA
:1019000008E6C4540FFB8B1080078603740F5BF549
:1019100010851082C00012133ED00080D72005032E
:101920000213B8AB141514EB70030213B8758220C0
:1019300012132480EE8A821213240213B8851182B6
:1019400085128322AA82BA0A0810990280FB75992F
:101950000D10990280FB8A99221212F67900E58314
:10196000B58202800D50031219DAE583C395821205
:1019700019F4E5D0C465D020E117EA2DFAEB3EFB5F
:10198000EC3FFC500974011219F4EC4480FC021283
:1019900074C3EA9DFAEB9EFBEC9FFC500FC3E499E5
:1019A000F9E49AFAE49BFBE49CFCB2D11212C30264
:1019B0001274AA82AB83ACF07D007E008A828B8396
:1019C0008CF0120F0FFFA3AA82AB83EF60070DBD4F
:1019D00000EA0E80E78D828E8322E582C583F58240
:1019E000A2D133A2D592D11392D5ECCFFCEBCEFB92
:1019F000EACDFA226040F82582500274FFF582E8B1
:101A000024F8501ECCCBCAF9E4CC24F85014CBCA2D
:101A1000F9E4CB24F8500BCAF9E4CA24F85003794E
:101A2000002224086010F8C3EC13FCEB13FBEA134C
:101A3000FAE913F9D8F122000000000000000000CC
:00000001FF
