:1000000002002E220000000000000000000000009E
:1000200000000000000000000000000206E77581EB
:10003000721201E3E582600302009A780079007A87
:10004000007B007C007D00EC4D601C88828983E48D
:1000500093A3A882A9838A828B83F0A3AA82AB830D
:100060001CBCFFE31D80E07582007583007C007D71
:1000700000EC4D600AE4F0A31CBCFFF51D80F27596
:1000800082007583007C007D00EC4D600AE4F0A3E3
:100090001CBCFFF51D80F21200031206EC80FE432B
:1000A0006F6D6D616E643A20257300526573706FD9
:1000B0006E73653A2025730D0A000D0A2050726F89
:1000C0006A656374325F54657374200D0A0041548D
:1000D0002B44564944424142410D0A0041542B569B
:1000E00045520D0A0041542B424155440D0A00412E
:1000F000542B524649440D0A0041542B445649445E
:100100000D0A0041542B5246430D0A0041542B5016
:100110004F57450D0A0041542B434C53530D0A00D1
:100120000D507265737320616E6420686F6C64207B
:1001300074686520424F4F5420627574746F6E204E
:10014000746F207472616E736D69742E0D0A0052A3
:10015000656D6F74652054657374005475726E69B3
:100160006E67207269676874005475726E696E6795
:10017000206C65667400476F696E6720666F7277E2
:1001800061726400526576657273696E67004174CE
:100190002072657374006D6F64653A256420707712
:1001A0006D523A252E30662070776D4C3A20252E00
:1001B000306620200D0A0070776D523A20252E30CF
:1001C000662070776D4C3A20252E3066200D0A008F
:1001D00052583A2025730D0A006F6F6F6F6F6F6F63
:1001E000004F0075A7007597DE7597AD75FF807598
:1001F000EF0675A71075C12075A70075A90075A930
:1002000000E5A930E7FB75A90375A903E5A930E767
:10021000FB43A41143A60175E10175E20075E341BA
:10022000759810758DE6858D8B53890F438920D283
:100230008ED29975C800438E1075CAEE75CBF675CF
:10024000CEFF75CFFFD2ADD2CAD2AF758200227574
:10025000A700C2EF75B28075BC2075B91E75E800A5
:1002600075DF3F75B300D2EF22AA82438E407592AC
:10027000B87593FF8592948593957591047B00C31F
:10028000EB9A500BE59130E7FB53917F0B80F075B3
:10029000910022AA82AB837C007D00C3EC9AED9B87
:1002A000502B7E00BE0400501D7582FAC002C003B0
:1002B000C004C005C006120269D006D005D004D023
:1002C00003D0020E80DE0CBC00D10D80CE22AA82AB
:1002D000AB83ACF0FD75A72075930C75C8107594B1
:1002E000008A118B128C138D1490A20075F04A7441
:1002F00004121063AA82AB83ACF0FD751118E4F50B
:1003000012F513F5148A828B838CF0ED121063AA18
:1003100082AB83ACF0FDE4C39AFAE49BFB74019CCE
:10032000E49D8A958B96D2C943944075A70022AA72
:100330008275A72010C90280FB8A9275A70022AAA5
:1003400082AB83ACF08A828B838CF0121047FD6005
:10035000188D82C002C003C00412032FD004D00342
:10036000D0020ABA00DF0B80DC2275A72010C80279
:1003700080FB53C83F85928275A7002275A7207A1B
:10038000007B0020C82675A700758214C002C00338
:10039000120269D003D00275A7200ABA00010BBA75
:1003A000A8E1BB61DE75A70075820A22C2C853C8E6
:1003B0003F85928275A70022AA82AB83ACF0C0026F
:1003C000C003C00412037CAD82D004D003D002BDB0
:1003D0000A0A8A828B838CF0E402120D8A828B8354
:1003E0008CF0ED12120DA3AA82AB8380D175A720E9
:1003F000A2C875A70022AA82AB837C007D00C3EC53
:100400009AED9B50477E00BE04005039C002C003E5
:10041000C004C005C0061203EDE433D006D005D0F9
:1004200004D003D0026001227582FAC002C003C06A
:1004300004C005C006120269D006D005D004D0035E
:10044000D0020E80C20CBC00B50D80B222AA82ABD5
:1004500083ACF0C002C003C004C002C003C0047477
:100460009FC0E07400C0E07480C0E01211ECE58130
:1004700024FAF581C296900005120293D004D003AD
:10048000D0028A828B838CF012033F90004F75F06C
:10049000401203B890000A120293D296744FC0E043
:1004A0007400C0E07440C0E074ABC0E07400C0E011
:1004B0007480C0E01211ECE58124FAF58122D2A00B
:1004C000758228120269C2A022AA828AE0A2E7925B
:1004D00090A2E69291A2E59292A2E49293C00212B7
:1004E00004BE758228120269D0028AE0A2E39290CB
:1004F000A2E29291A2E19292A2E092930204BEAA99
:1005000082D2978A821204C9900002020293AA82C0
:10051000C2978A821204C9900005020293C2A09079
:10052000001412029375823312050E758233120580
:100530000E75823212050E75822812050E75820C18
:1005400012050E75820112050E900014020293AA84
:1005500082AB83ACF07402B522047DC080027D8042
:100560008D82C002C003C00412050E900005120265
:1005700093D004D003D0027D007E00ED2AFFEE3B35
:10058000F88C018F82888389F0121047FF60208FDA
:1005900082C002C003C004C005C0061204FFD0061A
:1005A000D005D004D003D0020DBD00CF0E80CC30DA
:1005B00000248D028E03C3EA9410EB648094805073
:1005C00015758220C002C0031204FFD003D0020AB6
:1005D000BA00E30B80E022AA82AB83ACF07402B5D0
:1005E000230774C04524FD800574804524FD8D8259
:1005F000C002C003C00412050ED004D003D0027D97
:10060000007E00ED2AFFEE3BF88C018F8288838903
:10061000F0121047FF60208F82C002C003C004C0E8
:1006200005C0061204FFD006D005D004D003D002C6
:100630000DBD00CF0E80CC22AA828511F005F0748A
:1006400001800225E0D5F0FBFB75A720BA000280EF
:100650000ABA0102800FBA021E8014EBF4FA52F1BA
:10066000EB42D48012EBF4FA52F2EB42D58008EB65
:10067000F4FA52F3EB42CC75A700228582BBC2ED9F
:10068000D2EC30EDFD85BD8285BE832212067B1241
:1006900010C8AA82AB83ACF0FDC002C003C004C086
:1006A0000590837B75F0537440121134AA82AB839A
:1006B000ACF0FDE58124FCF581E4C0E074FCC0E011
:1006C000747FC0E07446C0E08A828B838CF0ED12A8
:1006D00012C6AA82AB83ACF0FDE58124FCF5818AC9
:1006E000828B838CF0ED22C2CFB2B032752D01E443
:1006F000F52EE4F52FF53012051D9001F41202934A
:1007000074BAC0E07400C0E07480C0E01211EC154F
:100710008115811581902580E4F5F01202CE7511C6
:1007200003758202120638751102758202120638AC
:1007300012024F9000CE75F08012044D9000DC75CF
:10074000F08012044D9000E575F08012044D900089
:10075000EF75F08012044D9000F975F08012044D91
:1007600090010375F08012044D90010C75F0801219
:10077000044D90011675F08012044D7420C0E07491
:1007800001C0E07480C0E01211EC15811581158163
:10079000752201D20090014F75F08012054F7582CD
:1007A0000F12068CAE82AF83AAF0FB8E318F328A95
:1007B000338B3475821012068CAA82AB83AEF0FFA5
:1007C0008A358B368E378F38E4C0E0C0E074E0C0E5
:1007D000E0743FC0E08531828532838533F0E534B3
:1007E0001210D4AA82E58124FCF581EA7003020A82
:1007F00053C2CA752D01E4F52EE4C0E0C0E074E0F8
:10080000C0E0743FC0E08535828536838537F0E5EA
:10081000381210D4AA82E58124FCF581EA70030223
:1008200008AD74F6C0E07428C0E074DCC0E0743F2A
:10083000C0E08535828536838537F0E5381212BBF6
:10084000AA82AB83AEF0FFE58124FCF5817451C030
:10085000E07466C0E07483C0E0743CC0E08A828BC0
:10086000838EF0EF1212C685822985832A85F02BAC
:10087000F52CE58124FCF581C029C02AC02BC02CB1
:1008800090000075F0C874421212BB8582258583E2
:100890002685F027F528E58124FCF581752201D213
:1008A0000090015B75F08012054F020E6974CDC097
:1008B000E074CCC0E0C0E0743FC0E085358285368E
:1008C000838537F0E538121104AE82E58124FCF50A
:1008D00081EE700302098E7451C0E07466C0E0744A
:1008E00083C0E0743CC0E08535828536838537F06F
:1008F000E5381212BB85823985833A85F03BF53C99
:10090000E58124FCF5817451C0E07466C0E0748315
:10091000C0E0743CC0E0853982853A83853BF0E5D0
:100920003C1212C685823985833A85F03BF53CE559
:100930008124FCF581C039C03AC03BC03C90000026
:1009400075F0C874421212BB85822585832685F016
:1009500027F528E58124FCF581C025C026C027C0E5
:100960002890000075F0C874421212BB8582298558
:10097000832A85F02BF52CE58124FCF58175220175
:10098000D20090016975F08012054F020E69749AC9
:10099000C0E07499C0E074D9C0E0743FC0E0853114
:1009A000828532838533F0E5341212BB8582398526
:1009B000833A85F03BF53CE58124FCF5817451C018
:1009C000E07466C0E07483C0E0743CC0E0853982A6
:1009D000853A83853BF0E53C1212C68582258583E6
:1009E0002685F027F528E58124FCF581749AC0E07E
:1009F0007499C0E074D9C0E0743FC0E0853182854D
:100A000032838533F0E5341212BBAE82AF83AAF095
:100A1000FBE58124FCF5817451C0E07466C0E0748C
:100A200083C0E0743CC0E08E828F838AF0EB1212A8
:100A3000C685822985832A85F02BF52CE58124FC47
:100A4000F581752201D20090017675F08012054F74
:100A5000020E6974CDC0E074CCC0E0C0E0743FC049
:100A6000E08531828532838533F0E534121104AAA2
:100A700082E58124FCF581EA7003020CB9D2CA75C3
:100A8000CAB075CBB9E4F52DF52EC0E0C0E074E036
:100A9000C0E0743FC0E08535828536838537F0E558
:100AA000381210D4AA82E58124FCF581EA70030291
:100AB0000B3D74F6C0E07428C0E074DCC0E0743F05
:100AC000C0E08535828536838537F0E5381212BB64
:100AD000AA82AB83ACF0FDE58124FCF5817451C0A2
:100AE000E07466C0E07483C0E0743CC0E08A828B2E
:100AF000838CF0ED1212C685822985832A85F02B1E
:100B0000F52CE58124FCF581C029C02AC02BC02C1E
:100B100090000075F0C874421212BB85822585834F
:100B20002685F027F528E58124FCF581752201D280
:100B30000090015B75F08012054F020E6974CDC004
:100B4000E074CCC0E0C0E0743FC0E08535828536FB
:100B5000838537F0E538121104AA82E58124FCF57B
:100B600081EA7003020C127451C0E07466C0E07434
:100B700083C0E0743CC0E08535828536838537F0DC
:100B8000E5381212BBAA82AB83ACF0FDE58124FCF0
:100B9000F5817451C0E07466C0E07483C0E0743CB9
:100BA000C0E08A828B838CF0ED1212C6AA82AB83DE
:100BB000ACF0FDE58124FCF581C002C003C004C097
:100BC0000590000075F0C874421212BB858225851D
:100BD000832685F027F528E58124FCF581C025C012
:100BE00026C027C02890000075F0C874421212BBBE
:100BF00085822985832A85F02BF52CE58124FCF557
:100C000081752201D20090016975F08012054F02B2
:100C10000E69C031C032C033C03490999A75F0D992
:100C2000743F1212BBAA82AB83ACF0FDE58124FCB9
:100C3000F5817451C0E07466C0E07483C0E0743C18
:100C4000C0E08A828B838CF0ED1212C685822585E6
:100C5000832685F027F528E58124FCF581C031C085
:100C600032C033C03490999A75F0D9743F1212BBD8
:100C7000AA82AB83ACF0FDE58124FCF5817451C000
:100C8000E07466C0E07483C0E0743CC0E08A828B8C
:100C9000838CF0ED1212C685822985832A85F02B7C
:100CA000F52CE58124FCF581752201D200900184A8
:100CB00075F08012054F020E69E4C0E0C0E074E0F8
:100CC000C0E0743FC0E08535828536838537F0E526
:100CD000381210D4AA82E58124FCF581EA7003025F
:100CE0000D6D74F6C0E07428C0E074DCC0E0743FA1
:100CF000C0E08535828536838537F0E5381212BB32
:100D0000AA82AB83ACF0FDE58124FCF5817451C06F
:100D1000E07466C0E07483C0E0743CC0E08A828BFB
:100D2000838CF0ED1212C685822985832A85F02BEB
:100D3000F52CE58124FCF581C029C02AC02BC02CEC
:100D400090000075F0C874421212BB85822585831D
:100D50002685F027F528E58124FCF581752201D24E
:100D60000090015B75F08012054F020E6974CDC0D2
:100D7000E074CCC0E0C0E0743FC0E08535828536C9
:100D8000838537F0E538121104AA82E58124FCF549
:100D900081EA7003020E41749EC0E074EFC0E074FB
:100DA00027C0E0743DC0E08535828536838537F005
:100DB000E5381212BBAA82AB83ACF0FDE58124FCBE
:100DC000F5817451C0E07466C0E07483C0E0743C87
:100DD000C0E08A828B838CF0ED1212C6AA82AB83AC
:100DE000ACF0FDE58124FCF581C002C003C004C065
:100DF0000590000075F0C874421212BB85822585EB
:100E0000832685F027F528E58124FCF581C025C0DF
:100E100026C027C02890000075F0C874421212BB8B
:100E200085822985832A85F02BF52CE58124FCF524
:100E300081752201D20090016975F08012054F8002
:100E4000287525007526007527007528007529006E
:100E5000752A00752B00752C00752201D2009001B7
:100E60008E75F08012054FC2CAE4C0E0C0E074C8BD
:100E7000C0E07442C0E08525828526838527F0E5A1
:100E8000281210D4AA82E58124FCF581EA600C7551
:100E900025007526007527C8752842E4C0E0C0E02B
:100EA00074C8C0E07442C0E0852982852A83852BFE
:100EB000F0E52C1210D4AA82E58124FCF581EA60C9
:100EC0000C752900752A00752BC8752C42E4C0E00A
:100ED000C0E0C0E0C0E08525828526838527F0E557
:100EE00028121104AA82E58124FCF581EA600C75C0
:100EF0002500752600752700752800E4C0E0C0E0D5
:100F0000C0E0C0E0852982852A83852BF0E52C127C
:100F10001104AA82E58124FCF581EA600C752900A0
:100F2000752A00752B00752C00C029C02AC02BC063
:100F30002CC025C026C027C028C02DC02E7496C046
:100F4000E07401C0E07480C0E01211ECE58124F38C
:100F5000F581C029C02AC02BC02CC025C026C027BF
:100F6000C028C02DC02E74B7C0E07401C0E07480EA
:100F7000C0E0744FC0E07400C0E07440C0E01212E2
:100F800075E58124F0F58190004F75F04012033F24
:100F90009000C81203F61203ED503490004F75F024
:100FA000401203B8C2CA75CAB075CBB9D2CA744F61
:100FB000C0E07400C0E07440C0E074D0C0E07401D0
:100FC000C0E07480C0E01211ECE58124FAF581756F
:100FD0002202D2009001D975F08012054FC3740728
:100FE000952FE464808530F063F08095F05005E43F
:100FF000F52FF53020B108052FE4B52F0205307428
:1010000001252FFAE43530FB7C017D00C3EC9AED1D
:1010100064808BF063F08095F0400302079EEC4DF6
:1010200024FF92007522029001E175F080C002C099
:1010300003C004C00512054FD005D004D003D00270
:101040000CBC00C80D80C520F71430F6148883A8A6
:101050008220F507E6A88375830022E280F7E493F7
:1010600022E022FB7A20E4FCFDFEFFE5822582F5EA
:1010700082E58333F583E5F033F5F0EB33FB40177E
:10108000DAE98042E5822582F582E58333F583E55E
:10109000F033F5F0EB33FBEC33FCED33FDEE33FED8
:1010A000EF33FFEC9511ED9512EE9513EF9514408B
:1010B00013EC9511FCED9512FDEE9513FEEF9514D2
:1010C000FF438201DABEEB22E4AC83AB82FAF9740F
:1010D0008E0213EEFFA8811818121416D2D133E62F
:1010E000400730E70B7582012220E7067582002257
:1010F000C2D11213F8E97003F5822230D101B3E4B2
:1011000033F58222FFA8811818121416D2D133E6C3
:10111000400730E70B7582002220E7067582012226
:10112000C2D11213F8E97003F5822220D101B3E491
:1011300033F582221214C3BC0003021462EF60FA7A
:1011400030D502B2D1E583B4FF03021478E582B44E
:10115000FF03021478258340072482400B021462A7
:101160002483145003021478F582EA8DF0A4A8F0C9
:10117000EA8EF0A428F8E435F0F9EB8DF0A428E924
:1011800035F0F9E433CA8FF0A429F9EA35F0FAEB27
:10119000F88EF0A429F9EA35F0FAE433FBEC8DF08F
:1011A000A429F9EA35F0FAE43BFBE88FF0A42AFA27
:1011B000EB35F0FBE433CCFD8EF0A42AFAEB35F0EE
:1011C000FBE43CFCED8FF0A42BFBEC35F0FC20E7BE
:1011D00003121490021441021E7D85824B85834CBC
:1011E00085F04D85104E9011D70218D0C00885812A
:1011F00008E50824FBF54EE50824FBF8864B088635
:101200004C08864D9011D71218D0D0082220F71024
:1012100030F6118883A88220F507F6A8837583002D
:1012200022F280F7F022AA82AB09AC0AAD0B8B82C6
:101230008C838DF0EA12120D0509E4B50902050A46
:101240002285820985830A85F00B850C4B850D4C20
:10125000850E4D850F4E9012261218D0AA82AB83B0
:10126000AC09AD0AAE0B8C828D838EF0E412120DA8
:101270008A828B8322C008858108E50824F8F54E10
:10128000E50824FBF8860908860A08860BE5082489
:10129000F8F8864B08864C08864D9012261218D016
:1012A000AA82AB83AC09AD0AAE0B8C828D838EF023
:1012B000E412120D8A828B83D00822A8811818C6E6
:1012C000B2E7C6021E921214C330D502B2D1BF00DB
:1012D00009BC0003021485021478BC0003021462E6
:1012E000E583B4FF0BE582B4FF03021485021462A8
:1012F000E582B4FF03021478C395835007247F402E
:101300000B0214622480145003021478C0E0E4CC71
:10131000CBCAF98D118E128F13EF54F0C4F51475EA
:1013200083068514F0EB84F582E9C4F9EAC4FAEB8C
:10133000C4FBEC540FC47803D6FC18EBD6FB18EAB8
:10134000D6FA8582F0EDA4A8F0FD8582F0EEA428FF
:10135000FEE435F0F88582F0EFA428FFE435F0F8DC
:10136000E99DF9EA9EFAEB9FFBEC98FCAD11AE12F9
:10137000AF1330E7101582E92DF9EA3EFAEB3FFB97
:10138000E43CFC80EDC082D58398C3E933F9EA33AD
:10139000FAEB33FBEC33FCC3E99DEA9EEB9FEC9444
:1013A00000B3E413F9D002D0E0C44AFAD003D0E08D
:1013B000C44BFBD004D0E0F5F0540FC44CFCD082F9
:1013C000158230F40FD3EC13FCEB13FBEA13FAE9AC
:1013D00013F90582E930E70A74012AFAE43BFBE4D9
:1013E0003CFC021459FCABF0AA83A982749EC2D1C2
:1013F000F5821214900214417901AA82E68F82B517
:10140000821318E6B5F00E18E6B5830918E68A824D
:10141000B58202790022B4800FE5F0700AE583708E
:1014200006E58270027F00EFB6801518B60010182E
:10143000B6000B18B600060808087600220808084F
:1014400022B98003EA13B34010EA2401FAE43BFB1B
:10145000E43CFC50047C800582BC000EBB000BBA4F
:101460000008E4F5F0F583F58222A2D1E582138C21
:10147000F092F78B838A8222E4F583F58275F080FF
:10148000F4A2D11322E4F583F58275F0C0747F22B3
:101490007804EC7011E58224F8500AF582E4C9CA98
:1014A000CBFCD8EF22EC7820058220E713D582010F
:1014B00022C3E933F9EA33FAEB33FBEC33FCD8EA25
:1014C000158222AA82AB83A2F73392D16002D2F7AF
:1014D000F582ACF0E58124F9F8E6FD08E6FE088621
:1014E000F008E6A2F73392D56002D2F7F583AFF0A9
:1014F00022AA827402C0E07415C0E0C03DC03E8ADA
:1015000082220544E4B54402054522AA8274302AA9
:10151000FA24C6500A74072AFA3001034302208ACB
:10152000820214F1E582FAC4540FF582C00212154A
:101530000BD002740F5AF58202150BAA3FAB40ACD8
:1015400041AD42AE43754A20EE2EFEED235401FF1D
:101550004206EA2AFAEB33FBEC33FCED33FDC3EE33
:1015600095464008EEC39546FE430201D54AD98A06
:101570003F8B408C418D428E4322786FE624D0759C
:10158000F00AA4FA7870E624D02AFA786E8603BBB3
:101590002D04C3E49AFA754601C3E464808AF063BB
:1015A000F08095F05029754A038A0374F6254A4065
:1015B0001C0546E54A142463F8E54A2463F98704C8
:1015C000A604772E1BEBFA6004054A80DE8B02EA44
:1015D00030E70D786486037865A6037864762E0A72
:1015E000E548600AE54804FB2546F5468005300CD1
:1015F00002054678638603E4BB2D0104FB700620D8
:10160000070330080205463005030216C1300657AD
:10161000EB600C75822DC0021214F1D002801C30D8
:10162000070C75822BC0021214F1D002800D300815
:101630000A758220C0021214F1D00278648604BCBC
:101640002E0C758230C0021214F1D0021547AC473F
:101650001547C3E5469C4003021705758230C0025A
:101660001214F1D00280E7AC471547C3E5469C5001
:101670000C758220C0021214F1D00280EA786386D1
:1016800004BC2D0C75822DC0021214F1D002801CF6
:1016900030070C75822BC0021214F1D002800D307D
:1016A000080A758220C0021214F1D0027864860400
:1016B000BC2E52758230C0021214F1D00215478040
:1016C00044EB600E75822DC0021214F1D002154752
:1016D000802030070E75822BC0021214F1D0021543
:1016E00047800F30080C758220C0021214F1D0021E
:1016F000154778648603BB2E0C758230C002121425
:10170000F1D0021547754A01C20EE54A2463F886F6
:1017100003BB45030217C2BB2E348A03C3E46480B3
:101720008BF063F08095F0500F758230C003121477
:10173000F1D0031B8B0280E48B02D20EE548703897
:10174000200C030217C275822E1214F18074300E21
:10175000278A03EB30E71FC3E464808548F063F019
:101760008095F0500C758230C0031214F1D003152F
:10177000480B8B0280DD8B02300E0EC3E464808543
:1017800048F063F08095F05021E54A2463F8860321
:101790008B82C0021214F1D002300E0EE54A24638F
:1017A000F88603BB2E02800215481547C3E4648007
:1017B0008548F063F08095F04003200E05054A024D
:1017C000170AC3E464808548F063F08095F0500AFE
:1017D0007582301214F1154880E830050FAA4715BC
:1017E00047EA60087582201214F180F122E5487002
:1017F00003300C0D74072548FAE547C39AF5478076
:1018000006E54724FAF547754A0078638602BA2B45
:101810000F20070C78637620200805754A010547DC
:10182000200519AA47C3E464808AF063F08095F02C
:10183000500A7582201214F1154780E7C20EE54A5E
:101840002463F88602BA00028069BA451F3001029B
:101850007665C3E464808548F063F08095F0500AB3
:101860007582301214F1154880E8D20EC3E54A940F
:1018700002E433FA7014EA700EC3E464808548F021
:1018800063F08095F04003300E16E54A2463F88635
:10189000028A821214F1E54A24FD50121548800E86
:1018A0007402B54A09300C0675822E1214F1054AED
:1018B00002183E300519AA47C3E464808AF063F039
:1018C0008095F0500A7582201214F1154780E722A6
:1018D00085823D85833EE4F544F545AA4BAB4CAC8F
:1018E0004D8A828B838CF0121047FD74012AF54BD0
:1018F000E43BF54C8C4DEDFA7003021E76BA2502DE
:101900008003021E6EC205C206C207C208C209C217
:101910000AC20BC20CC202C203C20475460075475C
:10192000007548FFAB4BAC4CAD4D8B828C838DF07A
:10193000121047FAA3AB82AC838B4B8C4C8D4DBA03
:1019400025078A821214F180928A06BE3000402E4A
:101950008A06EE24C6402774FFB54813E54775F0A4
:101960000AA4FEEA24D02EF54770BFD20680BBE55C
:101970004875F00AA4FEEA24D02EF54880ACBA2EB1
:101980000A74FFB548A4754800809F8A06BE6100AE
:10199000400E8A06EE248540075302DFD201800202
:1019A000C201BA20028075BA2303021A2BBA2A0395
:1019B000021A30BA2B02805FBA2D028055BA420259
:1019C000805FBA4303021A75BA4403021BB0BA45DA
:1019D00003021BCABA4603021BC6BA4703021BCE48
:1019E000BA4903021BB0BA4C02803BBA4E03021B39
:1019F000D2BA4F03021BB7BA5003021B49BA5303B2
:101A0000021A99BA5503021BBCBA5803021BC10241
:101A10001BFCD20502192AD20702192AD208021980
:101A20002AD20A02192AD20B02192AD20C02192A26
:101A300074FFB54820300A0BE54E14F8884E8647EF
:101A400002192AE54E24FEF8884E860608860718F5
:101A50008E4702192A300A0BE54E14F8884E864844
:101A600002192AE54E24FEF8884E860608860718D5
:101A70008E4802192A300A0AE54E14F8884E86026A
:101A8000800FE54E24FEF8884E8603088604188BE6
:101A9000028A821214F1021C01E54E24FDF8884EE0
:101AA000860308860408860518188B3F8C408D41F4
:101AB0008B828C838DF012200AAB82AC838B4974AD
:101AC000FFB5480385494820051DC3E549954750A2
:101AD00016E547C39549F547AB471547EB600875D1
:101AE00082201214F180F1853F828540838541F088
:101AF000121047FBFA6029AB481548C3E464808B99
:101B0000F063F08095F050188A821214F1AB3FAC6C
:101B100040AD410BBB00010C8B3F8C408D4180C719
:101B2000200503021C01C3E54995474003021C013F
:101B3000E547C39549F547AB471547EB7003021CD2
:101B4000017582201214F180EEE54E24FDF8884ED6
:101B5000860308860408860518188B3F8C408D4143
:101B6000E541FB30E7047A438013EB546060047A6C
:101B700050800AEB30E6047A4980027A588A82C0A3
:101B8000021214F175823A1214F17582301214F1B6
:101B90007582781214F1D002BA4902800BBA500251
:101BA0008006854082121524853F821215248051BB
:101BB000D20975460A804A754608804575460A80EE
:101BC00040754610803BD2028037D2038033D20466
:101BD000802FE54E24FDF8884E860308860408868B
:101BE0000518188B3F8C408D418B828C838DF0E5DE
:101BF0004412120DA3E54512120D80058A821214BB
:101C0000F1200206200303300470E54E24FCF8881E
:101C10004E86030886040886050886061818188B61
:101C20003F8C408D418E42E53FE540E541E5428BEA
:101C3000828C838DF0EE121EEB74FFB5480375485D
:101C400006300427747F5542FB8B43E543EB2BFBA7
:101C50008B43E54130E70674014543F543E54324F2
:101C6000684006749925434002D2033003061217D8
:101C7000ED0218DB12157A0218DBE5467003021834
:101C8000DB7B68300A2BE54E14F8884EE6FC339572
:101C9000E0FDFEFF8C3F8D408E418F4220095EACFF
:101CA0003F7D007E007F008C3F8D408E418F4280C3
:101CB0004C300B1FE54E24FCF8884E860408860540
:101CC0000886060886071818188C3F8D408E418FAD
:101CD00042802AE54E24FEF8884E860408860518C0
:101CE000ED3395E0FEFF8C3F8D408E418F42200901
:101CF0000CAC3FAD407E007F008E418F42300C43E4
:101D0000E53F45404541454260397408B5460C758C
:101D10008230C0031214F1D00380287410B546231A
:101D2000758230C0031214F1D00330010C75827833
:101D3000C0031214F1D003800A758258C003121434
:101D4000F1D003300925AC3FAD40AE41E542FF3054
:101D5000E717C3E49CFCE49DFDE49EFEE49FFF8C3A
:101D60003F8D408E418F428002C209754900D20DDD
:101D70008B00754300C00012153BD000200D0DE50F
:101D800043C4FCE6FD4CF61888038002A6430549CF
:101D9000B20DE53F45404541454270D68803E547D1
:101DA000700375470120061A200517E54904FCC396
:101DB0009547500E758220C0031214F1D0031547C9
:101DC00080E930090E75822DC0031214F1D003157D
:101DD000478024E549602030070E75822BC003122E
:101DE00014F1D0031547800F30080C758220C00312
:101DF0001214F1D003154720051EAC471547C3E563
:101E0000499C50273006047C3080027C208C82C0A4
:101E1000031214F1D00380E2C3E54995475009E568
:101E200047C39549F54780037547008B00AB4915BB
:101E300049EB6022B20D200D0A08E6C4540FFB8B5B
:101E40004380078603740F5BF543854382C000120D
:101E5000150BD00080D72005030218DBAB471547D0
:101E6000EB70030218DB7582201214F180EE8A8277
:101E70001214F10218DB85448285458322AA82BAB6
:101E80000A0810990280FB75990D10990280FB8A4F
:101E900099221214C37900E583B58202800D5003A4
:101EA000122032E583C3958212204CE5D0C465D060
:101EB00020E117EA2DFAEB3EFBEC3FFC50097401E0
:101EC00012204CEC4480FC021441C3EA9DFAEB9EC4
:101ED000FBEC9FFC500FC3E499F9E49AFAE49BFBF6
:101EE000E49CFCB2D1121490021441C0E0F8458287
:101EF000458345F07009F5F0FBFCFDFE021FB9E8D3
:101F000023A2F792E0F8A982AA83D2F7ABF07C0073
:101F10007E07C3749798404074FF2EFE740A89F0C0
:101F2000A4F985F082740A8AF0A4FA85F083740A11
:101F30008BF0A4FB740529F9EA3582FAEB3583FBB3
:101F4000740035F0FCC3EC13FCEB13FBEA13FAE965
:101F500013F908EC70EF80BAE8C3947FF88B838E96
:101F6000F0E4FBFCFDFEFF08C3E933F9EA33FAE5D0
:101F70008333F583EB3BD4FBEC3CD4FCED3DD4FD4B
:101F8000EE3ED4FEEF3FD4FF602D05F074052BD458
:101F9000FBE43CD4FCE43DD4FDE43ED4FEE43FD479
:101FA000FF758204C3EF13FFEE13FEED13FDEC1378
:101FB000FCEB13FBD582EDD8AF7863D0E020E704CB
:101FC000762B8002762D087906E7C4540F4430F64C
:101FD00008B90603762E08E7540F4430F60819B9FD
:101FE00002E7764508E5F020E704762B8004762D9D
:101FF000F4040875F00A844430F608E5F04430F63D
:1020000008E4F690006375F04022AA82AB83ACF03E
:102010007D007E008A828B838CF0121047FFA3AA7A
:1020200082AB83EF60070DBD00EA0E80E78D828EE4
:102030008322E582C583F582A2D133A2D592D11342
:1020400092D5ECCFFCEBCEFBEACDFA226040F8252E
:1020500082500274FFF582E824F8501ECCCBCAF9F6
:10206000E4CC24F85014CBCAF9E4CB24F8500BCAC2
:10207000F9E4CA24F8500379002224086010F8C358
:10208000EC13FCEB13FBEA13FAE913F9D8F1220085
:00000001FF
