:10000000020003758153120305E582600302006F4D
:10001000780079007A007B007C007D00EC4D601C4C
:1000200088828983E493A3A882A9838A828B83F040
:10003000A3AA82AB831CBCFFE31D80E07582007520
:1000400083007C007D00EC4D600AE4F0A31CBCFF43
:10005000F51D80F27582007583007C007D00EC4DFB
:10006000600AE4F0A31CBCFFF51D80F2120125120A
:1000700001C780FE1B5B324A004144432074657314
:10008000742070726F6772616D0A46696C653A2000
:1000900025730A436F6D70696C65643A2025732C73
:1000A0002025730A0A006D61696E2E63004D61722E
:1000B00020323120323032340031353A30373A3361
:1000C00033004C434420342D62697420746573748A
:1000D0003A0048656C6C6F2C20576F726C6421007D
:1000E00054797065207768617420796F7520776125
:1000F0006E7420746F20646973706C617920696E0E
:10010000206C696E65203220283136206368617268
:10011000206D6178293A20000A003C4E4F20464C61
:100120004F41543E002285822485832585F026E4B4
:10013000F527F528E52224FFFFE52334FFF87900B1
:100140007A00C3E99FEA648088F063F08095F050FC
:1001500059C002C007C000C0011205C5AB82D00162
:10016000D000D007D002BB0A028003BB0D1DE527DB
:100170002524FCE5283525FDAE268C828D838EF066
:10018000E41205D885278285288322E92524FCEA04
:100190003525FDAE268C828D838EF0EB1205D809B5
:1001A000B900010A89278A288098E5272524FAE5DD
:1001B000283525FBAC268A828B838CF0E41205D887
:1001C000852282852383221204C612040C9001F436
:1001D00012037A7474C0E07400C0E07480C0E0124E
:1001E00005A415811581158174B9C0E07400C0E0C3
:1001F0007480C0E074ADC0E07400C0E07480C0E002
:1002000074A6C0E07400C0E07480C0E07479C0E0FF
:100210007400C0E07480C0E01205A4E58124F4F508
:1002200081754A027582021204E0754A03758202E2
:100230001204E0754A047582021204E0754A0575DD
:1002400082021204E0750901D2009000C275F080AC
:1002500012043E750902D2009000D275F08012049B
:100260003E75820F120534AA82AB83ACF0FD8A2959
:100270008B2A8C2B8D2C758210120534AA82AB83AD
:10028000ACF0FD8A2D8B2E8C2F8D307582111205CE
:1002900034AA82AB83ACF0FD8A318B328C338D343F
:1002A000758212120534AA82AB83ACF0FD8A358BBD
:1002B000368C378D3874E0C0E07400C0E07480C0C4
:1002C000E01205A4158115811581752211E4F5232D
:1002D00090003975F0401201267418C0E07401C016
:1002E000E07480C0E01205A415811581158175099F
:1002F00002D20090003975F04012043E9001F412D1
:10030000037A02026175A7007597DE7597AD75A730
:100310001075C12075A70075A90075A900E5A93061
:10032000E7FB75A90375A903E5A930E7FB43A41012
:1003300075E10175E20075E340759810758DE685ED
:100340008D8B53890F438920D28ED29975820022DA
:10035000AA82438E407592B87593FF8592948593D7
:10036000957591047B00C3EB9A500BE59130E7FB48
:1003700053917F0B80F075910022AA82AB837C00A1
:100380007D00C3EC9AED9B502B7E00BE0400501DF7
:100390007582FAC002C003C004C005C00612035033
:1003A000D006D005D004D003D0020E80DE0CBC00F5
:1003B000D10D80CE22D2A0758228120350C2A02275
:1003C000AA828AE0A2E79290A2E69291A2E5929296
:1003D000A2E49293C0021203B5758228120350D092
:1003E000028AE0A2E39290A2E29291A2E19292A20A
:1003F000E092930203B5D2971203C0900002020369
:100400007AC2971203C090000502037AC2A090003E
:100410001412037A758233120401758233120401B7
:1004200075823212040175822812040175820C1241
:10043000040175820112040190001402037AAA8259
:10044000AB83ACF07402B509047DC080027D808D61
:1004500082C002C003C00412040190000512037A96
:10046000D004D003D0027D007E00ED2AFFEE3BF8E1
:100470008C018F82888389F01205F1FF60208F82C2
:10048000C002C003C004C005C0061203F6D006D0E7
:1004900005D004D003D0020DBD00CF0E80CC3000BB
:1004A000248D028E03C3EA9410EB6480948050156F
:1004B000758220C002C0031203F6D003D0020ABA2C
:1004C00000E30B80E02275A700C2EF75B28075BC17
:1004D0002075B91E75E80075DF3F75B300D2EF22B5
:1004E000AA82854AF005F07401800225E0D5F0FB70
:1004F000FB75A720BA0002800ABA0102800FBA0277
:100500001E8014EBF4FA52F1EB42D48012EBF4FAB1
:1005100052F2EB42D58008EBF4FA52F3EB42CC7581
:10052000A700228582BBC2EDD2EC30EDFD85BD82F5
:1005300085BE832212052312060DAA82AB83ACF07E
:10054000FDC002C003C004C005906C8B75F05374ED
:1005500040120619AA82AB83ACF0FDE58124FCF5BC
:1005600081E4C0E074FCC0E0747FC0E07446C0E089
:100570008A828B838CF0ED1206BCAA82AB83ACF02E
:10058000FDE58124FCF5818A828B838CF0ED2202CB
:100590000DFB85821985831A85F01B850A1C900541
:1005A0008F020864C008858108E50824FBF51CE576
:1005B0000824FBF8861908861A08861B90058F12F6
:1005C0000864D0082210980280FBAA998A82C0028F
:1005D000120DFBD0028A822220F71030F611888398
:1005E000A88220F507F6A88375830022F280F7F031
:1005F0002220F71430F6148883A88220F507E6A895
:100600008375830022E280F7E49322E022E4AC8346
:10061000AB82FAF9748E020E19120EA5BC00030209
:100620000E44EF60FA30D502B2D1E583B4FF030285
:100630000E5AE582B4FF03020E5A25834007248236
:10064000400B020E442483145003020E5AF582EA32
:100650008DF0A4A8F0EA8EF0A428F8E435F0F9EBC8
:100660008DF0A428E935F0F9E433CA8FF0A429F914
:10067000EA35F0FAEBF88EF0A429F9EA35F0FAE45D
:1006800033FBEC8DF0A429F9EA35F0FAE43BFBE802
:100690008FF0A42AFAEB35F0FBE433CCFD8EF0A406
:1006A0002AFAEB35F0FBE43CFCED8FF0A42BFBECDD
:1006B00035F0FC20E703120E72020E23120EA53055
:1006C000D502B2D1BF0009BC0003020E67020E5A68
:1006D000BC0003020E44E583B4FF0BE582B4FF03C4
:1006E000020E67020E44E582B4FF03020E5AC39560
:1006F000835007247F400B020E44248014500302D1
:100700000E5AC0E0E4CCCBCAF98D4A8E4B8F4CEF29
:1007100054F0C4F54D758306854DF0EB84F582E900
:10072000C4F9EAC4FAEBC4FBEC540FC47803D6FC5A
:1007300018EBD6FB18EAD6FA8582F0EDA4A8F0FDF6
:100740008582F0EEA428FEE435F0F88582F0EFA46F
:1007500028FFE435F0F8E99DF9EA9EFAEB9FFBECFF
:1007600098FCAD4AAE4BAF4C30E7101582E92DF93D
:10077000EA3EFAEB3FFBE43CFC80EDC082D5839877
:10078000C3E933F9EA33FAEB33FBEC33FCC3E99DFD
:10079000EA9EEB9FEC9400B3E413F9D002D0E0C4DE
:1007A0004AFAD003D0E0C44BFBD004D0E0F5F054BB
:1007B0000FC44CFCD082158230F40FD3EC13FCEB49
:1007C00013FBEA13FAE913F90582E930E70A740129
:1007D0002AFAE43BFBE43CFC020E3BAA8274ECC028
:1007E000E07407C0E0C00BC00C8A82220512E4B599
:1007F0001202051322AA8274302AFA24C6500A74FF
:10080000072AFA3001034302208A820207DBE582CD
:10081000FAC4540FF582C0021207F5D002740F5AC1
:10082000F5820207F5AA0DAB0EAC0FAD10AE117537
:100830001820EE2EFEED235401FF4206EA2AFAEBC1
:1008400033FBEC33FCED33FDC3EE95144008EEC3EF
:100850009514FE430201D518D98A0D8B0E8C0F8D8D
:10086000108E112285820B85830CE4F512F513AAF4
:1008700019AB1AAC1B8A828B838CF01205F1FD74C4
:10088000012AF519E43BF51A8C1BEDFA7003020DF1
:10089000F4BA25028003020DECC205C206C207C2EB
:1008A00008C209C20AC20BC20CC202C203C204754A
:1008B00014007515007516FFAB19AC1AAD1B8B82B1
:1008C0008C838DF01205F1FAA3AB82AC838B198C6B
:1008D0001A8D1BBA25078A821207DB80928A06BE10
:1008E0003000402E8A06EE24C6402774FFB516134A
:1008F000E51575F00AA4FEEA24D02EF51570BFD2D6
:100900000680BBE51675F00AA4FEEA24D02EF51683
:1009100080ACBA2E0A74FFB516A4751600809F8AA3
:1009200006BE6100400E8A06EE248540075302DFB2
:10093000D2018002C201BA20028075BA23030209E3
:10094000BFBA2A030209C4BA2B02805FBA2D028003
:1009500055BA4202805FBA4303020A09BA4403024D
:100960000B44BA4503020B5EBA4603020B5ABA4760
:1009700003020B62BA4903020B44BA4C02803BBA31
:100980004E03020B66BA4F03020B4BBA5003020A26
:10099000DDBA5303020A2DBA5503020B50BA5803AD
:1009A000020B55020B90D2050208BED2070208BE08
:1009B000D2080208BED20A0208BED20B0208BED27A
:1009C0000C0208BE74FFB51620300A0BE51C14F8A3
:1009D000881C86150208BEE51C24FEF8881C8606C5
:1009E000088607188E150208BE300A0BE51C14F89D
:1009F000881C86160208BEE51C24FEF8881C8606A4
:100A0000088607188E160208BE300A0AE51C14F87C
:100A1000881C8602800FE51C24FEF8881C860308CB
:100A20008604188B028A821207DB020B95E51C24D0
:100A3000FDF8881C860308860408860518188B0DA7
:100A40008C0E8D0F8B828C838DF0120ED3AB82AC0B
:100A5000838B1774FFB5160385171620051DC3E594
:100A60001795155016E515C39517F515AB15151502
:100A7000EB60087582201207DB80F1850D82850E00
:100A800083850FF01205F1FBFA6029AB161516C32A
:100A9000E464808BF063F08095F050188A8212072E
:100AA000DBAB0DAC0EAD0F0BBB00010C8B0D8C0E38
:100AB0008D0F80C7200503020B95C3E517951540E0
:100AC00003020B95E515C39517F515AB151515EB39
:100AD0007003020B957582201207DB80EEE51C2463
:100AE000FDF8881C860308860408860518188B0DF7
:100AF0008C0E8D0FE50FFB30E7047A438013EB5427
:100B00006060047A50800AEB30E6047A4980027A09
:100B1000588A82C0021207DB75823A1207DB75829F
:100B2000301207DB7582781207DBD002BA490280E7
:100B30000BBA50028006850E8212080E850D8212B5
:100B4000080E8051D20975140A804A751408804530
:100B500075140A8040751410803BD2028037D2038E
:100B60008033D204802FE51C24FDF8881C860308FE
:100B7000860408860518188B0D8C0E8D0F8B828CC1
:100B8000838DF0E5121205D8A3E5131205D8800570
:100B90008A821207DB20020620030330045AE51C78
:100BA00024FCF8881C860308860408860508860647
:100BB0001818188B0D8C0E8D0F8E10750D1A750E62
:100BC00001750F80850D1D850E1E850F1F74012573
:100BD0001DFEE4351EFFAB1F8E0D8F0E8B0F851D86
:100BE00082851E83851FF01205F1FBFA700302084F
:100BF0006F8A821207DB80CCE514700302086F7BDA
:100C000053300A2BE51C14F8881CE6FC3395E0FDF4
:100C1000FEFF8C0D8D0E8E0F8F1020095EAC0D7DAA
:100C2000007E007F008C0D8D0E8E0F8F10804C305B
:100C30000B1FE51C24FCF8881C8604088605088622
:100C4000060886071818188C0D8D0E8E0F8F1080D1
:100C50002AE51C24FEF8881C860408860518ED3356
:100C600095E0FEFF8C0D8D0E8E0F8F1020090CACC1
:100C70000DAD0E7E007F008E0F8F10300C43E50D02
:100C8000450E450F451060397408B5140C75823057
:100C9000C0031207DBD00380287410B514237582BB
:100CA00030C0031207DBD00330010C758278C0031B
:100CB0001207DBD003800A758258C0031207DBD00D
:100CC00003300925AC0DAD0EAE0FE510FF30E71770
:100CD000C3E49CFCE49DFDE49EFEE49FFF8C0D8D2F
:100CE0000E8E0F8F108002C209751700D20D8B0077
:100CF000751100C000120825D000200D0DE511C4AB
:100D0000FCE6FD4CF61888038002A6110517B20D0B
:100D1000E50D450E450F451070D68803E5157003A7
:100D200075150120061A200517E51704FCC3951553
:100D3000500E758220C0031207DBD003151580E921
:100D400030090E75822DC0031207DBD00315158004
:100D500024E517602030070E75822BC0031207DBD5
:100D6000D0031515800F30080C758220C0031207C0
:100D7000DBD003151520051EAC151515C3E5179C12
:100D800050273006047C3080027C208C82C0031205
:100D900007DBD00380E2C3E51795155009E515C3BD
:100DA0009517F51580037515008B00AB171517EB1C
:100DB0006022B20D200D0A08E6C4540FFB8B11808F
:100DC000078603740F5BF511851182C0001207F5C9
:100DD000D00080D720050302086FAB151515EB7006
:100DE0000302086F7582201207DB80EE8A821207E9
:100DF000DB02086F85128285138322AA82BA0A0851
:100E000010990280FB75990D10990280FB8A992236
:100E1000FCABF0AA83A982749EC2D1F582120E7235
:100E2000020E23B98003EA13B34010EA2401FAE466
:100E30003BFBE43CFC50047C800582BC000EBB0004
:100E40000BBA0008E4F5F0F583F58222A2D1E58221
:100E5000138CF092F78B838A8222E4F583F58275F6
:100E6000F080F4A2D11322E4F583F58275F0C0740A
:100E70007F227804EC7011E58224F8500AF582E4B0
:100E8000C9CACBFCD8EF22EC7820058220E713D525
:100E9000820122C3E933F9EA33FAEB33FBEC33FC8A
:100EA000D8EA158222AA82AB83A2F73392D16002DC
:100EB000D2F7F582ACF0E58124F9F8E6FD08E6FE0C
:100EC0000886F008E6A2F73392D56002D2F7F583E0
:100ED000AFF022AA82AB83ACF07D007E008A828BC9
:100EE000838CF01205F1FFA3AA82AB83EF60070D9C
:100EF000BD00EA0E80E78D828E8322000000000094
:00000001FF
